0067011990999991950010107004+68750+023550FM-12+038299999V0201601N002619999999N9999999N9-01611+99999999999ADDAA199002091AY171999GF108991999999999999999999KA1999N-02281MW1731
0043011990999991950010112004+68750+023550FM-12+038299999V0201401N00261220001CN9999999N9-01781+99999999999ADDAY101999GF104991999999999999999999MW1001
0043011990999991950010118004+68750+023550FM-12+038299999V0200901N00261220001CN9999999N9-02281+99999999999ADDAY101999GF104991999999999999999999MW1001
0056011990999991950010207004+68750+023550FM-12+038299999V0201001N00101220001CN9999999N9-02611+99999999999ADDAY101999GF104991999999999999999999KA1999N-03501MW1001
0043011990999991950010212004+68750+023550FM-12+038299999V0201001N00101220001CN9999999N9-02611+99999999999ADDAY101999GF103991999999999999999999MW1001
0043011990999991950010218004+68750+023550FM-12+038299999V0201801N00101220001CN9999999N9-03001+99999999999ADDAY101999GF104991999999999999999999MW1001
0056011990999991950010307004+68750+023550FM-12+038299999V0202501N00261220001CN9999999N9-02891+99999999999ADDAY101999GF104991999999999999999999KA1999N-03391MW1001
0043011990999991950010312004+68750+023550FM-12+038299999V0202401N00261220001CN9999999N9-03111+99999999999ADDAY101999GF102991999999999999999999MW1001
0043011990999991950010318004+68750+023550FM-12+038299999V0200901N00101220001CN9999999N9-02501+99999999999ADDAY101999GF104991999999999999999999MW1001
0056011990999991950010407004+68750+023550FM-12+038299999V0202001N00101220001CN9999999N9-03501+99999999999ADDAY101999GF103991999999999999999999KA1999N-03611MW1001
0043011990999991950010412004+68750+023550FM-12+038299999V0202401N002619999999N9999999N9-02721+99999999999ADDAY101999GF107991999999999999999999MW1001
0043011990999991950010418004+68750+023550FM-12+038299999V0202701N002619999999N9999999N9-02281+99999999999ADDAY101999GF107991999999999999999999MW1001
0056011990999991950010507004+68750+023550FM-12+038299999V0200401N004619999999N9999999N9-01501+99999999999ADDAY101999GF107991999999999999999999KA1999N-02501MW1001
0043011990999991950010512004+68750+023550FM-12+038299999V0200401N00261220001CN9999999N9-02111+99999999999ADDAY101999GF101991999999999999999999MW1001
0043011990999991950010518004+68750+023550FM-12+038299999V0200401N001019999999N9999999N9-01891+99999999999ADDAY101999GF108991999999999999999999MW1711
0067011990999991950010607004+68750+023550FM-12+038299999V0202901N00101220001CN9999999N9-02891+99999999999ADDAA199000591AY101999GF103991999999999999999999KA1999N-03001MW1101
0043011990999991950010612004+68750+023550FM-12+038299999V0200901N00261220001CN9999999N9-02391+99999999999ADDAY101999GF103991999999999999999999MW1001
0037011990999991950010618004+68750+023550FM-12+038299999V0202101N001019999999N9999999N9-02281+99999999999ADDAY101999GF108991999999999999999999
0056011990999991950010707004+68750+023550FM-12+038299999V0203001N001019999999N9999999N9-03001+99999999999ADDAY101999GF108991999999999999999999KA1999N-04001MW1001
0043011990999991950010712004+68750+023550FM-12+038299999V0202101N00101220001CN9999999N9-02891+99999999999ADDAY101999GF103991999999999999999999MW1001
0043011990999991950010718004+68750+023550FM-12+038299999V0202701N00101220001CN9999999N9-03891+99999999999ADDAY101999GF102991999999999999999999MW1001
0056011990999991950010807004+68750+023550FM-12+038299999V0200901N00261220001CN9999999N9-02781+99999999999ADDAY101999GF104991999999999999999999KA1999N-04111MW1001
0043011990999991950010812004+68750+023550FM-12+038299999V0200501N00101220001CN9999999N9-03221+99999999999ADDAY101999GF101991999999999999999999MW1001
0043011990999991950010818004+68750+023550FM-12+038299999V0209991C00001220001CN9999999N9-03391+99999999999ADDAY101999GF100991999999999999999999MW1001
0056011990999991950010907004+68750+023550FM-12+038299999V0209991C00001220001CN9999999N9-03891+99999999999ADDAY101999GF101991999999999999999999KA1999N-04221MW1001
0043011990999991950010912004+68750+023550FM-12+038299999V0202601N00101220001CN9999999N9-03891+99999999999ADDAY101999GF101991999999999999999999MW1001
0043011990999991950010918004+68750+023550FM-12+038299999V0209991C00001220001CN9999999N9-03891+99999999999ADDAY101999GF100991999999999999999999MW1001
0056011990999991950011007004+68750+023550FM-12+038299999V0209991C000019999999N9999999N9-02111+99999999999ADDAY101999GF108991999999999999999999KA1999N-04111MW1001
0043011990999991950011012004+68750+023550FM-12+038299999V0201801N002619999999N9999999N9-01611+99999999999ADDAY101999GF108991999999999999999999MW1001
0043011990999991950011018004+68750+023550FM-12+038299999V0201601N00261220001CN9999999N9-02281+99999999999ADDAY131999GF100991999999999999999999MW1001
0056011990999991950011107004+68750+023550FM-12+038299999V0201901N004619999999N9999999N9-01781+99999999999ADDAY131999GF108991999999999999999999KA1999N-02721MW1361
0043011990999991950011112004+68750+023550FM-12+038299999V0201901N004619999999N9999999N9-01721+99999999999ADDAY131999GF108991999999999999999999MW1361
0043011990999991950011118004+68750+023550FM-12+038299999V0201901N004619999999N9999999N9-01501+99999999999ADDAY171999GF108991999999999999999999MW1731
0067011990999991950011207004+68750+023550FM-12+038299999V0201601N004619999999N9999999N9-01221+99999999999ADDAA199004091AY171999GF108991999999999999999999KA1999N-01611MW1731
0043011990999991950011212004+68750+023550FM-12+038299999V0202001N004619999999N9999999N9-01221+99999999999ADDAY131999GF108991999999999999999999MW1361
0043011990999991950011218004+68750+023550FM-12+038299999V0201801N00461220001CN9999999N9-01221+99999999999ADDAY131999GF103991999999999999999999MW1361
0056011990999991950011307004+68750+023550FM-12+038299999V0202701N00461220001CN9999999N9-01221+99999999999ADDAY131999GF104991999999999999999999KA1999N-01501MW1361
0043011990999991950011312004+68750+023550FM-12+038299999V0203101N004619999999N9999999N9-00721+99999999999ADDAY171999GF108991999999999999999999MW1361
0037011990999991950011318004+68750+023550FM-12+038299999V0203501N004619999999N9999999N9-00281+99999999999ADDAY131999GF107991999999999999999999
0067011990999991950011407004+68750+023550FM-12+038299999V0203001N001019999999N9999999N9-00781+99999999999ADDAA199000691AY101999GF108991999999999999999999KA1999N-01281MW1771
0043011990999991950011412004+68750+023550FM-12+038299999V0203601N002619999999N9999999N9-00721+99999999999ADDAY171999GF108991999999999999999999MW1771
0043011990999991950011418004+68750+023550FM-12+038299999V0202801N001019999999N9999999N9-00891+99999999999ADDAY171999GF108991999999999999999999MW1771
0067011990999991950011507004+68750+023550FM-12+038299999V0201801N002619999999N9999999N9-01221+99999999999ADDAA199000391AY101999GF106991999999999999999999KA1999N-02281MW1101
0043011990999991950011512004+68750+023550FM-12+038299999V0201701N004619999999N9999999N9-01391+99999999999ADDAY141999GF107991999999999999999999MW1101
0043011990999991950011518004+68750+023550FM-12+038299999V0202001N002619999999N9999999N9-02001+99999999999ADDAY141999GF108991999999999999999999MW1101
0050011990999991950011607004+68750+023550FM-12+038299999V0201001N002619999999N9999999N9-02721+99999999999ADDAY101999GF106991999999999999999999KA1999N-03391
0043011990999991950011612004+68750+023550FM-12+038299999V0201401N00101220001CN9999999N9-02781+99999999999ADDAY101999GF102991999999999999999999MW1001
0043011990999991950011618004+68750+023550FM-12+038299999V0201001N00261220001CN9999999N9-03281+99999999999ADDAY101999GF100991999999999999999999MW1001
0056011990999991950011707004+68750+023550FM-12+038299999V0201801N002619999999N9999999N9-03001+99999999999ADDAY101999GF107991999999999999999999KA1999N-04111MW1001